{
  "_format": "hh-sol-artifact-1",
  "contractName": "DAOCommittee_V1",
  "sourceName": "contracts/dao/DAOCommittee_V1.sol",
  "abi": [
    {
      "anonymous": false,
      "inputs": [
        {
          "indexed": false,
          "internalType": "uint256",
          "name": "newReward",
          "type": "uint256"
        }
      ],
      "name": "ActivityRewardChanged",
      "type": "event"
    },
    {
      "anonymous": false,
      "inputs": [
        {
          "indexed": true,
          "internalType": "address",
          "name": "from",
          "type": "address"
        },
        {
          "indexed": true,
          "internalType": "uint256",
          "name": "id",
          "type": "uint256"
        },
        {
          "indexed": false,
          "internalType": "address[]",
          "name": "targets",
          "type": "address[]"
        },
        {
          "indexed": false,
          "internalType": "uint128",
          "name": "noticePeriodSeconds",
          "type": "uint128"
        },
        {
          "indexed": false,
          "internalType": "uint128",
          "name": "votingPeriodSeconds",
          "type": "uint128"
        },
        {
          "indexed": false,
          "internalType": "bool",
          "name": "atomicExecute",
          "type": "bool"
        }
      ],
      "name": "AgendaCreated",
      "type": "event"
    },
    {
      "anonymous": false,
      "inputs": [
        {
          "indexed": true,
          "internalType": "uint256",
          "name": "id",
          "type": "uint256"
        },
        {
          "indexed": false,
          "internalType": "address[]",
          "name": "target",
          "type": "address[]"
        }
      ],
      "name": "AgendaExecuted",
      "type": "event"
    },
    {
      "anonymous": false,
      "inputs": [
        {
          "indexed": true,
          "internalType": "address",
          "name": "from",
          "type": "address"
        },
        {
          "indexed": true,
          "internalType": "uint256",
          "name": "id",
          "type": "uint256"
        },
        {
          "indexed": false,
          "internalType": "uint256",
          "name": "voting",
          "type": "uint256"
        },
        {
          "indexed": false,
          "internalType": "string",
          "name": "comment",
          "type": "string"
        }
      ],
      "name": "AgendaVoteCasted",
      "type": "event"
    },
    {
      "anonymous": false,
      "inputs": [
        {
          "indexed": true,
          "internalType": "address",
          "name": "candidate",
          "type": "address"
        },
        {
          "indexed": true,
          "internalType": "address",
          "name": "candidateContract",
          "type": "address"
        },
        {
          "indexed": false,
          "internalType": "string",
          "name": "memo",
          "type": "string"
        }
      ],
      "name": "CandidateContractCreated",
      "type": "event"
    },
    {
      "anonymous": false,
      "inputs": [
        {
          "indexed": true,
          "internalType": "uint256",
          "name": "slotIndex",
          "type": "uint256"
        },
        {
          "indexed": false,
          "internalType": "address",
          "name": "prevMember",
          "type": "address"
        },
        {
          "indexed": true,
          "internalType": "address",
          "name": "newMember",
          "type": "address"
        }
      ],
      "name": "ChangedMember",
      "type": "event"
    },
    {
      "anonymous": false,
      "inputs": [
        {
          "indexed": false,
          "internalType": "address",
          "name": "candidate",
          "type": "address"
        },
        {
          "indexed": false,
          "internalType": "string",
          "name": "newMemo",
          "type": "string"
        }
      ],
      "name": "ChangedMemo",
      "type": "event"
    },
    {
      "anonymous": false,
      "inputs": [
        {
          "indexed": true,
          "internalType": "uint256",
          "name": "prevSlotMax",
          "type": "uint256"
        },
        {
          "indexed": true,
          "internalType": "uint256",
          "name": "slotMax",
          "type": "uint256"
        }
      ],
      "name": "ChangedSlotMaximum",
      "type": "event"
    },
    {
      "anonymous": false,
      "inputs": [
        {
          "indexed": true,
          "internalType": "address",
          "name": "candidate",
          "type": "address"
        },
        {
          "indexed": false,
          "internalType": "address",
          "name": "receiver",
          "type": "address"
        },
        {
          "indexed": false,
          "internalType": "uint256",
          "name": "amount",
          "type": "uint256"
        }
      ],
      "name": "ClaimedActivityReward",
      "type": "event"
    },
    {
      "anonymous": false,
      "inputs": [
        {
          "indexed": true,
          "internalType": "address",
          "name": "candidate",
          "type": "address"
        },
        {
          "indexed": true,
          "internalType": "address",
          "name": "candidateContract",
          "type": "address"
        },
        {
          "indexed": false,
          "internalType": "string",
          "name": "memo",
          "type": "string"
        }
      ],
      "name": "Layer2Registered",
      "type": "event"
    },
    {
      "anonymous": false,
      "inputs": [
        {
          "indexed": false,
          "internalType": "uint256",
          "name": "newQuorum",
          "type": "uint256"
        }
      ],
      "name": "QuorumChanged",
      "type": "event"
    },
    {
      "anonymous": false,
      "inputs": [
        {
          "indexed": true,
          "internalType": "bytes32",
          "name": "role",
          "type": "bytes32"
        },
        {
          "indexed": true,
          "internalType": "bytes32",
          "name": "previousAdminRole",
          "type": "bytes32"
        },
        {
          "indexed": true,
          "internalType": "bytes32",
          "name": "newAdminRole",
          "type": "bytes32"
        }
      ],
      "name": "RoleAdminChanged",
      "type": "event"
    },
    {
      "anonymous": false,
      "inputs": [
        {
          "indexed": true,
          "internalType": "bytes32",
          "name": "role",
          "type": "bytes32"
        },
        {
          "indexed": true,
          "internalType": "address",
          "name": "account",
          "type": "address"
        },
        {
          "indexed": true,
          "internalType": "address",
          "name": "sender",
          "type": "address"
        }
      ],
      "name": "RoleGranted",
      "type": "event"
    },
    {
      "anonymous": false,
      "inputs": [
        {
          "indexed": true,
          "internalType": "bytes32",
          "name": "role",
          "type": "bytes32"
        },
        {
          "indexed": true,
          "internalType": "address",
          "name": "account",
          "type": "address"
        },
        {
          "indexed": true,
          "internalType": "address",
          "name": "sender",
          "type": "address"
        }
      ],
      "name": "RoleRevoked",
      "type": "event"
    },
    {
      "inputs": [],
      "name": "DEFAULT_ADMIN_ROLE",
      "outputs": [
        {
          "internalType": "bytes32",
          "name": "",
          "type": "bytes32"
        }
      ],
      "stateMutability": "view",
      "type": "function"
    },
    {
      "inputs": [
        {
          "internalType": "uint256",
          "name": "v",
          "type": "uint256"
        }
      ],
      "name": "_toRAY",
      "outputs": [
        {
          "internalType": "uint256",
          "name": "",
          "type": "uint256"
        }
      ],
      "stateMutability": "pure",
      "type": "function"
    },
    {
      "inputs": [],
      "name": "activityRewardPerSecond",
      "outputs": [
        {
          "internalType": "uint256",
          "name": "",
          "type": "uint256"
        }
      ],
      "stateMutability": "view",
      "type": "function"
    },
    {
      "inputs": [],
      "name": "agendaManager",
      "outputs": [
        {
          "internalType": "contract IDAOAgendaManager",
          "name": "",
          "type": "address"
        }
      ],
      "stateMutability": "view",
      "type": "function"
    },
    {
      "inputs": [
        {
          "internalType": "address",
          "name": "_candidate",
          "type": "address"
        },
        {
          "internalType": "address",
          "name": "_account",
          "type": "address"
        }
      ],
      "name": "balanceOfOnCandidate",
      "outputs": [
        {
          "internalType": "uint256",
          "name": "amount",
          "type": "uint256"
        }
      ],
      "stateMutability": "view",
      "type": "function"
    },
    {
      "inputs": [
        {
          "internalType": "address",
          "name": "_candidateContract",
          "type": "address"
        },
        {
          "internalType": "address",
          "name": "_account",
          "type": "address"
        }
      ],
      "name": "balanceOfOnCandidateContract",
      "outputs": [
        {
          "internalType": "uint256",
          "name": "amount",
          "type": "uint256"
        }
      ],
      "stateMutability": "view",
      "type": "function"
    },
    {
      "inputs": [
        {
          "internalType": "address",
          "name": "_candidate",
          "type": "address"
        }
      ],
      "name": "candidateContract",
      "outputs": [
        {
          "internalType": "address",
          "name": "",
          "type": "address"
        }
      ],
      "stateMutability": "view",
      "type": "function"
    },
    {
      "inputs": [],
      "name": "candidateFactory",
      "outputs": [
        {
          "internalType": "contract ICandidateFactory",
          "name": "",
          "type": "address"
        }
      ],
      "stateMutability": "view",
      "type": "function"
    },
    {
      "inputs": [
        {
          "internalType": "address",
          "name": "_candidate",
          "type": "address"
        }
      ],
      "name": "candidateInfos",
      "outputs": [
        {
          "components": [
            {
              "internalType": "address",
              "name": "candidateContract",
              "type": "address"
            },
            {
              "internalType": "uint256",
              "name": "indexMembers",
              "type": "uint256"
            },
            {
              "internalType": "uint128",
              "name": "memberJoinedTime",
              "type": "uint128"
            },
            {
              "internalType": "uint128",
              "name": "rewardPeriod",
              "type": "uint128"
            },
            {
              "internalType": "uint128",
              "name": "claimedTimestamp",
              "type": "uint128"
            }
          ],
          "internalType": "struct StorageStateCommittee.CandidateInfo",
          "name": "",
          "type": "tuple"
        }
      ],
      "stateMutability": "view",
      "type": "function"
    },
    {
      "inputs": [
        {
          "internalType": "uint256",
          "name": "",
          "type": "uint256"
        }
      ],
      "name": "candidates",
      "outputs": [
        {
          "internalType": "address",
          "name": "",
          "type": "address"
        }
      ],
      "stateMutability": "view",
      "type": "function"
    },
    {
      "inputs": [],
      "name": "candidatesLength",
      "outputs": [
        {
          "internalType": "uint256",
          "name": "",
          "type": "uint256"
        }
      ],
      "stateMutability": "view",
      "type": "function"
    },
    {
      "inputs": [
        {
          "internalType": "uint256",
          "name": "_agendaID",
          "type": "uint256"
        },
        {
          "internalType": "uint256",
          "name": "_vote",
          "type": "uint256"
        },
        {
          "internalType": "string",
          "name": "_comment",
          "type": "string"
        }
      ],
      "name": "castVote",
      "outputs": [],
      "stateMutability": "nonpayable",
      "type": "function"
    },
    {
      "inputs": [
        {
          "internalType": "uint256",
          "name": "_memberIndex",
          "type": "uint256"
        }
      ],
      "name": "changeMember",
      "outputs": [
        {
          "internalType": "bool",
          "name": "",
          "type": "bool"
        }
      ],
      "stateMutability": "nonpayable",
      "type": "function"
    },
    {
      "inputs": [
        {
          "internalType": "address",
          "name": "_receiver",
          "type": "address"
        }
      ],
      "name": "claimActivityReward",
      "outputs": [],
      "stateMutability": "nonpayable",
      "type": "function"
    },
    {
      "inputs": [
        {
          "internalType": "string",
          "name": "_memo",
          "type": "string"
        },
        {
          "internalType": "address",
          "name": "_operatorAddress",
          "type": "address"
        }
      ],
      "name": "createCandidate",
      "outputs": [],
      "stateMutability": "nonpayable",
      "type": "function"
    },
    {
      "inputs": [
        {
          "internalType": "string",
          "name": "_memo",
          "type": "string"
        }
      ],
      "name": "createCandidate",
      "outputs": [],
      "stateMutability": "nonpayable",
      "type": "function"
    },
    {
      "inputs": [],
      "name": "daoVault",
      "outputs": [
        {
          "internalType": "contract IDAOVault",
          "name": "",
          "type": "address"
        }
      ],
      "stateMutability": "view",
      "type": "function"
    },
    {
      "inputs": [
        {
          "internalType": "uint256",
          "name": "_reducingMemberIndex",
          "type": "uint256"
        },
        {
          "internalType": "uint256",
          "name": "_quorum",
          "type": "uint256"
        }
      ],
      "name": "decreaseMaxMember",
      "outputs": [],
      "stateMutability": "nonpayable",
      "type": "function"
    },
    {
      "inputs": [
        {
          "internalType": "uint256",
          "name": "_agendaID",
          "type": "uint256"
        }
      ],
      "name": "endAgendaVoting",
      "outputs": [],
      "stateMutability": "nonpayable",
      "type": "function"
    },
    {
      "inputs": [
        {
          "internalType": "uint256",
          "name": "_agendaID",
          "type": "uint256"
        }
      ],
      "name": "executeAgenda",
      "outputs": [],
      "stateMutability": "nonpayable",
      "type": "function"
    },
    {
      "inputs": [
        {
          "internalType": "address",
          "name": "_candidate",
          "type": "address"
        }
      ],
      "name": "getClaimableActivityReward",
      "outputs": [
        {
          "internalType": "uint256",
          "name": "",
          "type": "uint256"
        }
      ],
      "stateMutability": "view",
      "type": "function"
    },
    {
      "inputs": [
        {
          "internalType": "address",
          "name": "_oldCandidate",
          "type": "address"
        }
      ],
      "name": "getOldCandidateInfos",
      "outputs": [
        {
          "components": [
            {
              "internalType": "address",
              "name": "candidateContract",
              "type": "address"
            },
            {
              "internalType": "address",
              "name": "newCandidate",
              "type": "address"
            },
            {
              "internalType": "uint256",
              "name": "indexMembers",
              "type": "uint256"
            },
            {
              "internalType": "uint128",
              "name": "memberJoinedTime",
              "type": "uint128"
            },
            {
              "internalType": "uint128",
              "name": "rewardPeriod",
              "type": "uint128"
            },
            {
              "internalType": "uint128",
              "name": "claimedTimestamp",
              "type": "uint128"
            }
          ],
          "internalType": "struct StorageStateCommitteeV2.CandidateInfo2",
          "name": "",
          "type": "tuple"
        }
      ],
      "stateMutability": "view",
      "type": "function"
    },
    {
      "inputs": [
        {
          "internalType": "bytes32",
          "name": "role",
          "type": "bytes32"
        }
      ],
      "name": "getRoleAdmin",
      "outputs": [
        {
          "internalType": "bytes32",
          "name": "",
          "type": "bytes32"
        }
      ],
      "stateMutability": "view",
      "type": "function"
    },
    {
      "inputs": [
        {
          "internalType": "bytes32",
          "name": "role",
          "type": "bytes32"
        },
        {
          "internalType": "uint256",
          "name": "index",
          "type": "uint256"
        }
      ],
      "name": "getRoleMember",
      "outputs": [
        {
          "internalType": "address",
          "name": "",
          "type": "address"
        }
      ],
      "stateMutability": "view",
      "type": "function"
    },
    {
      "inputs": [
        {
          "internalType": "bytes32",
          "name": "role",
          "type": "bytes32"
        }
      ],
      "name": "getRoleMemberCount",
      "outputs": [
        {
          "internalType": "uint256",
          "name": "",
          "type": "uint256"
        }
      ],
      "stateMutability": "view",
      "type": "function"
    },
    {
      "inputs": [
        {
          "internalType": "bytes32",
          "name": "role",
          "type": "bytes32"
        },
        {
          "internalType": "address",
          "name": "account",
          "type": "address"
        }
      ],
      "name": "grantRole",
      "outputs": [],
      "stateMutability": "nonpayable",
      "type": "function"
    },
    {
      "inputs": [
        {
          "internalType": "bytes32",
          "name": "role",
          "type": "bytes32"
        },
        {
          "internalType": "address",
          "name": "account",
          "type": "address"
        }
      ],
      "name": "hasRole",
      "outputs": [
        {
          "internalType": "bool",
          "name": "",
          "type": "bool"
        }
      ],
      "stateMutability": "view",
      "type": "function"
    },
    {
      "inputs": [
        {
          "internalType": "uint256",
          "name": "_newMaxMember",
          "type": "uint256"
        },
        {
          "internalType": "uint256",
          "name": "_quorum",
          "type": "uint256"
        }
      ],
      "name": "increaseMaxMember",
      "outputs": [],
      "stateMutability": "nonpayable",
      "type": "function"
    },
    {
      "inputs": [
        {
          "internalType": "address",
          "name": "_candidate",
          "type": "address"
        }
      ],
      "name": "isCandidate",
      "outputs": [
        {
          "internalType": "bool",
          "name": "",
          "type": "bool"
        }
      ],
      "stateMutability": "view",
      "type": "function"
    },
    {
      "inputs": [
        {
          "internalType": "address",
          "name": "_candidate",
          "type": "address"
        }
      ],
      "name": "isExistCandidate",
      "outputs": [
        {
          "internalType": "bool",
          "name": "isExist",
          "type": "bool"
        }
      ],
      "stateMutability": "view",
      "type": "function"
    },
    {
      "inputs": [
        {
          "internalType": "address",
          "name": "_candidate",
          "type": "address"
        }
      ],
      "name": "isMember",
      "outputs": [
        {
          "internalType": "bool",
          "name": "",
          "type": "bool"
        }
      ],
      "stateMutability": "view",
      "type": "function"
    },
    {
      "inputs": [],
      "name": "layer2Registry",
      "outputs": [
        {
          "internalType": "contract ILayer2Registry",
          "name": "",
          "type": "address"
        }
      ],
      "stateMutability": "view",
      "type": "function"
    },
    {
      "inputs": [],
      "name": "maxMember",
      "outputs": [
        {
          "internalType": "uint256",
          "name": "",
          "type": "uint256"
        }
      ],
      "stateMutability": "view",
      "type": "function"
    },
    {
      "inputs": [
        {
          "internalType": "uint256",
          "name": "",
          "type": "uint256"
        }
      ],
      "name": "members",
      "outputs": [
        {
          "internalType": "address",
          "name": "",
          "type": "address"
        }
      ],
      "stateMutability": "view",
      "type": "function"
    },
    {
      "inputs": [
        {
          "internalType": "address",
          "name": "owner",
          "type": "address"
        },
        {
          "internalType": "address",
          "name": "",
          "type": "address"
        },
        {
          "internalType": "uint256",
          "name": "",
          "type": "uint256"
        },
        {
          "internalType": "bytes",
          "name": "data",
          "type": "bytes"
        }
      ],
      "name": "onApprove",
      "outputs": [
        {
          "internalType": "bool",
          "name": "",
          "type": "bool"
        }
      ],
      "stateMutability": "nonpayable",
      "type": "function"
    },
    {
      "inputs": [],
      "name": "pauseProxy",
      "outputs": [
        {
          "internalType": "bool",
          "name": "",
          "type": "bool"
        }
      ],
      "stateMutability": "view",
      "type": "function"
    },
    {
      "inputs": [],
      "name": "quorum",
      "outputs": [
        {
          "internalType": "uint256",
          "name": "",
          "type": "uint256"
        }
      ],
      "stateMutability": "view",
      "type": "function"
    },
    {
      "inputs": [
        {
          "internalType": "address",
          "name": "_layer2",
          "type": "address"
        },
        {
          "internalType": "string",
          "name": "_memo",
          "type": "string"
        }
      ],
      "name": "registerLayer2Candidate",
      "outputs": [],
      "stateMutability": "nonpayable",
      "type": "function"
    },
    {
      "inputs": [
        {
          "internalType": "address",
          "name": "_operator",
          "type": "address"
        },
        {
          "internalType": "address",
          "name": "_layer2",
          "type": "address"
        },
        {
          "internalType": "string",
          "name": "_memo",
          "type": "string"
        }
      ],
      "name": "registerLayer2CandidateByOwner",
      "outputs": [],
      "stateMutability": "nonpayable",
      "type": "function"
    },
    {
      "inputs": [
        {
          "internalType": "bytes32",
          "name": "role",
          "type": "bytes32"
        },
        {
          "internalType": "address",
          "name": "account",
          "type": "address"
        }
      ],
      "name": "renounceRole",
      "outputs": [],
      "stateMutability": "nonpayable",
      "type": "function"
    },
    {
      "inputs": [],
      "name": "retireMember",
      "outputs": [
        {
          "internalType": "bool",
          "name": "",
          "type": "bool"
        }
      ],
      "stateMutability": "nonpayable",
      "type": "function"
    },
    {
      "inputs": [
        {
          "internalType": "bytes32",
          "name": "role",
          "type": "bytes32"
        },
        {
          "internalType": "address",
          "name": "account",
          "type": "address"
        }
      ],
      "name": "revokeRole",
      "outputs": [],
      "stateMutability": "nonpayable",
      "type": "function"
    },
    {
      "inputs": [],
      "name": "seigManager",
      "outputs": [
        {
          "internalType": "contract ISeigManager",
          "name": "",
          "type": "address"
        }
      ],
      "stateMutability": "view",
      "type": "function"
    },
    {
      "inputs": [
        {
          "internalType": "uint256",
          "name": "_value",
          "type": "uint256"
        }
      ],
      "name": "setActivityRewardPerSecond",
      "outputs": [],
      "stateMutability": "nonpayable",
      "type": "function"
    },
    {
      "inputs": [
        {
          "internalType": "uint256",
          "name": "_agendaID",
          "type": "uint256"
        },
        {
          "internalType": "uint256",
          "name": "_status",
          "type": "uint256"
        },
        {
          "internalType": "uint256",
          "name": "_result",
          "type": "uint256"
        }
      ],
      "name": "setAgendaStatus",
      "outputs": [],
      "stateMutability": "nonpayable",
      "type": "function"
    },
    {
      "inputs": [
        {
          "internalType": "uint256",
          "name": "_burnAmount",
          "type": "uint256"
        }
      ],
      "name": "setBurntAmountAtDAO",
      "outputs": [],
      "stateMutability": "nonpayable",
      "type": "function"
    },
    {
      "inputs": [
        {
          "internalType": "address",
          "name": "_candidate",
          "type": "address"
        },
        {
          "internalType": "string",
          "name": "_memo",
          "type": "string"
        }
      ],
      "name": "setMemoOnCandidate",
      "outputs": [],
      "stateMutability": "nonpayable",
      "type": "function"
    },
    {
      "inputs": [
        {
          "internalType": "address",
          "name": "_candidateContract",
          "type": "address"
        },
        {
          "internalType": "string",
          "name": "_memo",
          "type": "string"
        }
      ],
      "name": "setMemoOnCandidateContract",
      "outputs": [],
      "stateMutability": "nonpayable",
      "type": "function"
    },
    {
      "inputs": [
        {
          "internalType": "uint256",
          "name": "_quorum",
          "type": "uint256"
        }
      ],
      "name": "setQuorum",
      "outputs": [],
      "stateMutability": "nonpayable",
      "type": "function"
    },
    {
      "inputs": [
        {
          "internalType": "bytes4",
          "name": "interfaceId",
          "type": "bytes4"
        }
      ],
      "name": "supportsInterface",
      "outputs": [
        {
          "internalType": "bool",
          "name": "",
          "type": "bool"
        }
      ],
      "stateMutability": "view",
      "type": "function"
    },
    {
      "inputs": [],
      "name": "ton",
      "outputs": [
        {
          "internalType": "address",
          "name": "",
          "type": "address"
        }
      ],
      "stateMutability": "view",
      "type": "function"
    },
    {
      "inputs": [
        {
          "internalType": "address",
          "name": "_candidate",
          "type": "address"
        }
      ],
      "name": "totalSupplyOnCandidate",
      "outputs": [
        {
          "internalType": "uint256",
          "name": "totalsupply",
          "type": "uint256"
        }
      ],
      "stateMutability": "view",
      "type": "function"
    },
    {
      "inputs": [
        {
          "internalType": "address",
          "name": "_candidateContract",
          "type": "address"
        }
      ],
      "name": "totalSupplyOnCandidateContract",
      "outputs": [
        {
          "internalType": "uint256",
          "name": "totalsupply",
          "type": "uint256"
        }
      ],
      "stateMutability": "view",
      "type": "function"
    },
    {
      "inputs": [
        {
          "internalType": "address",
          "name": "_candidate",
          "type": "address"
        }
      ],
      "name": "updateSeigniorage",
      "outputs": [
        {
          "internalType": "bool",
          "name": "",
          "type": "bool"
        }
      ],
      "stateMutability": "nonpayable",
      "type": "function"
    },
    {
      "inputs": [],
      "name": "wton",
      "outputs": [
        {
          "internalType": "address",
          "name": "",
          "type": "address"
        }
      ],
      "stateMutability": "view",
      "type": "function"
    }
  ],
  "bytecode": "0x60806040523480156200001157600080fd5b50620000246301ffc9a760e01b6200002a565b620000ae565b6001600160e01b03198082169003620000895760405162461bcd60e51b815260206004820152601c60248201527f4552433136353a20696e76616c696420696e7465726661636520696400000000604482015260640160405180910390fd5b6001600160e01b0319166000908152600d60205260409020805460ff19166001179055565b615dd380620000be6000396000f3fe608060405234801561001057600080fd5b506004361061036d5760003560e01c80636becff27116101d3578063a1ea352511610104578063c7cac42c116100a2578063cf2a239c1161007c578063cf2a239c146109a2578063d51b9e93146109b5578063d525f04f146109c8578063d547741f146109db57600080fd5b8063c7cac42c14610969578063ca15c8731461097c578063cc48b9471461098f57600080fd5b8063ad6675dc116100de578063ad6675dc14610928578063b5dd11581461093b578063c1ba4e591461094e578063c4ef9c001461096157600080fd5b8063a1ea3525146108d6578063a217fddf146108e9578063a230c524146108f157600080fd5b8063805aca20116101715780638d62d9491161014b5780638d62d9491461088a5780639010d07c1461089d57806391d14854146108b05780639932e94c146108c357600080fd5b8063805aca2014610851578063885b46961461086457806389ea43001461087757600080fd5b806374d58f48116101ad57806374d58f481461081a578063773b7f651461082d57806378767d33146108355780637f3316361461084857600080fd5b80636becff27146107e15780636da8f3ce146107f45780636fb7f5581461080757600080fd5b806332a45ef6116102ad5780635903bd6c1161024b5780635fba7a56116102255780635fba7a561461076a578063607cf7341461077d57806363a8fd8914610790578063651d08cd146107b557600080fd5b80635903bd6c146107315780635daf08ca146107445780635ebe76221461075757600080fd5b80634273ca16116102875780634273ca16146106ca578063440b69ad146106dd57806350e8f17d146106f0578063561a1dab1461070357600080fd5b806332a45ef6146106915780633477ee2e146106a457806336568abe146106b757600080fd5b80631703a0181161031a57806324f99b1e116102f457806324f99b1e1461054f57806327fd92fd146105625780632e011c1e1461058d5780632f2ff15d1461067e57600080fd5b80631703a0181461050e578063216f486b14610517578063248a9ca31461052c57600080fd5b806311f19e041161034b57806311f19e04146103c457806314d3535e146103d757806316f7f982146104fb57600080fd5b806301ffc9a71461037257806303e3c9ac1461039a5780630ebe021a146103b1575b600080fd5b6103856103803660046150f3565b6109ee565b60405190151581526020015b60405180910390f35b6103a360085481565b604051908152602001610391565b6103a36103bf36600461511d565b610a12565b6103856103d236600461511d565b610a22565b6104916103e536600461514b565b6040805160c081018252600080825260208201819052918101829052606081018290526080810182905260a0810191909152506001600160a01b039081166000908152600f6020908152604091829020825160c08101845281548516815260018201549094169184019190915260028101549183019190915260038101546001600160801b038082166060850152600160801b909104811660808401526004909101541660a082015290565b6040516103919190600060c0820190506001600160a01b03808451168352806020850151166020840152506040830151604083015260608301516001600160801b0380821660608501528060808601511660808501528060a08601511660a0850152505092915050565b6103a3610509366004615168565b611018565b6103a3600a5481565b61052a61052536600461511d565b6110e1565b005b6103a361053a36600461511d565b6000908152600c602052604090206002015490565b61052a61055d3660046151ea565b6115c7565b600254610575906001600160a01b031681565b6040516001600160a01b039091168152602001610391565b61062961059b36600461514b565b6040805160a0808201835260008083526020808401829052838501829052606080850183905260809485018390526001600160a01b0396871683526009825291859020855193840186528054909616835260018601549083015260028501546001600160801b0380821695840195909552600160801b90048416908201526003909301549091169082015290565b6040805182516001600160a01b0316815260208084015190820152828201516001600160801b03908116928201929092526060808401518316908201526080928301519091169181019190915260a001610391565b61052a61068c36600461523d565b611ab3565b61052a61069f366004615262565b611b4f565b6105756106b236600461511d565b612352565b61052a6106c536600461523d565b61237c565b6103856106d83660046152b9565b612404565b61052a6106eb3660046153f9565b6126fa565b61052a6106fe36600461545b565b612760565b61038561071136600461514b565b6001600160a01b0390811660009081526009602052604090205416151590565b600154610575906001600160a01b031681565b61057561075236600461511d565b612ad0565b61052a61076536600461511d565b612ae0565b61052a61077836600461547d565b612b72565b61052a61078b3660046154bf565b612f51565b600e546103859074010000000000000000000000000000000000000000900460ff1681565b6105756107c336600461514b565b6001600160a01b039081166000908152600960205260409020541690565b61052a6107ef36600461514b565b6131a8565b61052a61080236600461545b565b6133fc565b600554610575906001600160a01b031681565b61052a61082836600461511d565b613514565b6006546103a3565b6103a361084336600461514b565b613638565b6103a3600b5481565b61052a61085f366004615514565b6136f2565b61052a61087236600461511d565b613835565b61038561088536600461514b565b613866565b601054610575906001600160a01b031681565b6105756108ab36600461545b565b6138e2565b6103856108be36600461523d565b6138fa565b6103a36108d136600461514b565b613912565b61052a6108e4366004615540565b6139c7565b6103a3600081565b6103856108ff36600461514b565b6001600160a01b03166000908152600960205260409020600201546001600160801b0316151590565b6103a361093636600461514b565b6139d2565b600354610575906001600160a01b031681565b61052a61095c36600461511d565b613a02565b610385613bb8565b61052a6109773660046154bf565b613f16565b6103a361098a36600461511d565b613f42565b600054610575906001600160a01b031681565b600454610575906001600160a01b031681565b6103856109c336600461514b565b613f59565b6103a36109d6366004615168565b614028565b61052a6109e936600461523d565b614059565b6001600160e01b031981166000908152600d602052604081205460ff165b92915050565b6000610a0c82633b9aca006155a6565b6000816008548110610a865760405162461bcd60e51b815260206004820152602260248201527f44414f436f6d6d69747465653a20696e76616c6964206d656d62657220696e646044820152610caf60f31b60648201526084015b60405180910390fd5b6000336001600160a01b0316636c8381f86040518163ffffffff1660e01b8152600401602060405180830381865afa158015610ac6573d6000803e3d6000fd5b505050506040513d601f19601f82011682018060405250810190610aea91906155bd565b6001600160a01b0381166000908152600960209081526040918290208251631dffc87160e21b815292519394509233926377ff21c49260048083019391928290030181865afa158015610b41573d6000803e3d6000fd5b505050506040513d601f19601f82011682018060405250810190610b6591906155f8565b610bd75760405162461bcd60e51b815260206004820152603060248201527f44414f436f6d6d69747465653a2073656e646572206973206e6f74206120636160448201527f6e64696461746520636f6e7472616374000000000000000000000000000000006064820152608401610a7d565b80546001600160a01b03163314610c415760405162461bcd60e51b815260206004820152602860248201527f44414f436f6d6d69747465653a20696e76616c69642063616e6469646174652060448201526718dbdb9d1c9858dd60c21b6064820152608401610a7d565b60028101546001600160801b031615610c9c5760405162461bcd60e51b815260206004820152601c60248201527f44414f436f6d6d69747465653a20616c7265616479206d656d626572000000006044820152606401610a7d565b600060078681548110610cb157610cb1615615565b60009182526020822001546001600160a01b03169150610ce9826001600160a01b039081166000908152600960205260409020541690565b6002840180546001600160801b031916426001600160801b03161790556001840188905560078054919250859189908110610d2657610d26615615565b600091825260209091200180546001600160a01b0319166001600160a01b039283161790558216610da0576040516001600160a01b03838116825285169088907f663b98adf1afa777e36528b3293a057803f87ed00d2d2518dccfe5d7a6e99ccf9060200160405180910390a36001955050505050611012565b806001600160a01b031663817b1cd26040518163ffffffff1660e01b8152600401602060405180830381865afa158015610dde573d6000803e3d6000fd5b505050506040513d601f19601f82011682018060405250810190610e02919061562b565b336001600160a01b031663817b1cd26040518163ffffffff1660e01b8152600401602060405180830381865afa158015610e40573d6000803e3d6000fd5b505050506040513d601f19601f82011682018060405250810190610e64919061562b565b11610eb15760405162461bcd60e51b815260206004820152601160248201527f6e6f7420656e6f75676820616d6f756e740000000000000000000000000000006044820152606401610a7d565b6001600160a01b03821660009081526009602052604081206001810191909155600381015460028201546001600160801b0391821691161115610f53576002810154610f06906001600160801b031642615644565b600282018054601090610f2a908490600160801b90046001600160801b0316615664565b92506101000a8154816001600160801b0302191690836001600160801b03160217905550610fb4565b6003810154610f6b906001600160801b031642615644565b600282018054601090610f8f908490600160801b90046001600160801b0316615664565b92506101000a8154816001600160801b0302191690836001600160801b031602179055505b6002810180546001600160801b03191690556040516001600160a01b03848116825286169089907f663b98adf1afa777e36528b3293a057803f87ed00d2d2518dccfe5d7a6e99ccf9060200160405180910390a36001965050505050505b50919050565b60006001600160a01b0383166110705760405162461bcd60e51b815260206004820152601f60248201527f54686973206163636f756e74206973206e6f7420612063616e646964617465006044820152606401610a7d565b60405163af500ba360e01b81526001600160a01b03838116600483015284169063af500ba390602401602060405180830381865afa1580156110b6573d6000803e3d6000fd5b505050506040513d601f19601f820116820180604052508101906110da919061562b565b9392505050565b6002546001600160a01b031661114e5760405162461bcd60e51b815260206004820152602c60248201527f53746f726167655374617465436f6d6d69747465653a204167656e64614d616e60448201526b61676572206973207a65726f60a01b6064820152608401610a7d565b6002546040516377f28d5b60e01b8152600481018390526001600160a01b03909116906377f28d5b90602401602060405180830381865afa158015611197573d6000803e3d6000fd5b505050506040513d601f19601f820116820180604052508101906111bb91906155f8565b6112185760405162461bcd60e51b815260206004820152602860248201527f44414f436f6d6d69747465653a2063616e206e6f74206578656375746520746860448201526765206167656e646160c01b6064820152608401610a7d565b6002546040516373ba374560e01b8152600481018390526000918291829182916001600160a01b03909116906373ba374590602401600060405180830381865afa15801561126a573d6000803e3d6000fd5b505050506040513d6000823e601f3d908101601f191682016040526112929190810190615793565b9350935093509350811561141557600254604051631b8c251960e11b8152600481018790526001600160a01b03909116906337184a3290602401600060405180830381600087803b1580156112e657600080fd5b505af11580156112fa573d6000803e3d6000fd5b5050505060005b845181101561140f57600085828151811061131e5761131e615615565b60200260200101516001600160a01b031685838151811061134157611341615615565b60200260200101516040516113569190615870565b6000604051808303816000865af19150503d8060008114611393576040519150601f19603f3d011682016040523d82523d6000602084013e611398565b606091505b50509050806113fc5760405162461bcd60e51b815260206004820152602a60248201527f44414f436f6d6d69747465653a204661696c656420746f206578656375746520604482015269746865206167656e646160b01b6064820152608401610a7d565b50806114078161588c565b915050611301565b50611588565b6000815b85518110156114ae57600061147b87838151811061143957611439615615565b602002602001015187848151811061145357611453615615565b60200260200101515188858151811061146e5761146e615615565b60200260200101516140e7565b905080156114955761148e8360016158a5565b925061149b565b506114ae565b50806114a68161588c565b915050611419565b50600254604051632833207960e21b815260048101889052602481018390526001600160a01b039091169063a0cc81e490604401600060405180830381600087803b1580156114fc57600080fd5b505af1158015611510573d6000803e3d6000fd5b505050508451818361152291906158a5565b0361158657600254604051631b8c251960e11b8152600481018890526001600160a01b03909116906337184a3290602401600060405180830381600087803b15801561156d57600080fd5b505af1158015611581573d6000803e3d6000fd5b505050505b505b847f785146be3266678a3f4ea454b310ff1f8c91d0ad9a7997bcd0619940d4d67fe6856040516115b891906158fc565b60405180910390a25050505050565b6002546001600160a01b03166116345760405162461bcd60e51b815260206004820152602c60248201527f53746f726167655374617465436f6d6d69747465653a204167656e64614d616e60448201526b61676572206973207a65726f60a01b6064820152608401610a7d565b6000336001600160a01b0316636c8381f86040518163ffffffff1660e01b8152600401602060405180830381865afa158015611674573d6000803e3d6000fd5b505050506040513d601f19601f8201168201806040525081019061169891906155bd565b6001600160a01b0380821660009081526009602052604090208054929350911633146117175760405162461bcd60e51b815260206004820152602860248201527f44414f436f6d6d69747465653a20696e76616c69642063616e6469646174652060448201526718dbdb9d1c9858dd60c21b6064820152608401610a7d565b600254604051637e77eb2360e01b8152600481018890526001600160a01b0384811660248301526044820188905290911690637e77eb23906064016020604051808303816000875af1158015611771573d6000803e3d6000fd5b505050506040513d601f19601f8201168201806040525081019061179591906155f8565b50600254604051635772521560e11b815260048101889052600091829182916001600160a01b03169063aee4a42a90602401606060405180830381865afa1580156117e4573d6000803e3d6000fd5b505050506040513d601f19601f82011682018060405250810190611808919061590f565b92509250925082600a54116118e657600254604051632b0a851b60e11b81526001600160a01b03909116906356150a369061184a908c90600190600401615953565b600060405180830381600087803b15801561186457600080fd5b505af1158015611878573d6000803e3d6000fd5b5050600254604051633625b75960e21b81526001600160a01b03909116925063d896dd6491506118af908c90600390600401615977565b600060405180830381600087803b1580156118c957600080fd5b505af11580156118dd573d6000803e3d6000fd5b50505050611a62565b81600a54116119855760028054604051632b0a851b60e11b81526001600160a01b03909116916356150a3691611920918d91600401615953565b600060405180830381600087803b15801561193a57600080fd5b505af115801561194e573d6000803e3d6000fd5b5050600254604051633625b75960e21b81526001600160a01b03909116925063d896dd6491506118af908c90600590600401615977565b61198f82826158a5565b600a5411611a6257600254604051632b0a851b60e11b81526001600160a01b03909116906356150a36906119ca908c90600390600401615953565b600060405180830381600087803b1580156119e457600080fd5b505af11580156119f8573d6000803e3d6000fd5b5050600254604051633625b75960e21b81526001600160a01b03909116925063d896dd649150611a2f908c90600590600401615977565b600060405180830381600087803b158015611a4957600080fd5b505af1158015611a5d573d6000803e3d6000fd5b505050505b88336001600160a01b03167ffa0761008653bc7bf9fa040fb7e07672ad3e17a976eb452c44e81dd782a6214b8a8a8a604051611aa0939291906159b7565b60405180910390a3505050505050505050565b6000828152600c6020526040902060020154611acf90336138fa565b611b415760405162461bcd60e51b815260206004820152602f60248201527f416363657373436f6e74726f6c3a2073656e646572206d75737420626520616e60448201527f2061646d696e20746f206772616e7400000000000000000000000000000000006064820152608401610a7d565b611b4b8282614106565b5050565b6005546001600160a01b0316611bbb5760405162461bcd60e51b815260206004820152602b60248201527f53746f726167655374617465436f6d6d69747465653a20696e76616c6964205360448201526a6569674d616e616765726560a81b6064820152608401610a7d565b6004546001600160a01b0316611c295760405162461bcd60e51b815260206004820152602d60248201527f53746f726167655374617465436f6d6d69747465653a20696e76616c6964204c60448201526c6179657232526567697374727960981b6064820152608401610a7d565b6003546001600160a01b0316611c9b5760405162461bcd60e51b815260206004820152603160248201527f53746f726167655374617465436f6d6d69747465653a20696e76616c696420436044820152706f6d6d69747465654c32466163746f727960781b6064820152608401610a7d565b611ca66000336138fa565b611cf15760405162461bcd60e51b81526020600482015260286024820152600080516020615da783398151915260448201526730b71030b236b4b760c11b6064820152608401610a7d565b60035460055460405163732518fb60e11b81526000926001600160a01b039081169263e64a31f692611d3292879287928b928b9230929116906004016159da565b6020604051808303816000875af1158015611d51573d6000803e3d6000fd5b505050506040513d601f19601f82011682018060405250810190611d7591906155bd565b90506001600160a01b038116611de65760405162461bcd60e51b815260206004820152603060248201527f44414f436f6d6d69747465653a206465706c6f7965642063616e64696461746560448201526f436f6e7472616374206973207a65726f60801b6064820152608401610a7d565b6001600160a01b038281166000908152600960205260409020541615612141576001600160a01b038281166000908152600f60205260409020541615611e6e5760405162461bcd60e51b815260206004820152601060248201527f616c7265616479206d69677261746564000000000000000000000000000000006044820152606401610a7d565b6040518060c0016040528060096000856001600160a01b03166001600160a01b0316815260200190815260200160002060000160009054906101000a90046001600160a01b03166001600160a01b03168152602001826001600160a01b0316815260200160096000856001600160a01b03166001600160a01b0316815260200190815260200160002060010154815260200160096000856001600160a01b03166001600160a01b0316815260200190815260200160002060020160009054906101000a90046001600160801b03166001600160801b0316815260200160096000856001600160a01b03166001600160a01b0316815260200190815260200160002060020160109054906101000a90046001600160801b03166001600160801b0316815260200160096000856001600160a01b03166001600160a01b0316815260200190815260200160002060030160009054906101000a90046001600160801b03166001600160801b0316815250600f6000846001600160a01b03166001600160a01b0316815260200190815260200160002060008201518160000160006101000a8154816001600160a01b0302191690836001600160a01b0316021790555060208201518160010160006101000a8154816001600160a01b0302191690836001600160a01b031602179055506040820151816002015560608201518160030160006101000a8154816001600160801b0302191690836001600160801b0316021790555060808201518160030160106101000a8154816001600160801b0302191690836001600160801b0316021790555060a08201518160040160006101000a8154816001600160801b0302191690836001600160801b031602179055509050508060096000846001600160a01b03166001600160a01b0316815260200190815260200160002060000160006101000a8154816001600160a01b0302191690836001600160a01b0316021790555061221d565b6040805160a0810182526001600160a01b0383811682526000602080840182815284860183815260608601848152608087018581528a87168087526009909552978520965187546001600160a01b0319908116919097161787559151600180880191909155905191516001600160801b03928316600160801b918416919091021760028701559551600390950180546001600160801b031916959091169490941790935560068054948501815590527ff652222313e28459528d920b65115c16c04f3efc82aaedc97be59f3f377c0d3f90920180549092161790555b60048054600554604051635e58d38f60e11b81526001600160a01b0385811694820194909452908316602482015291169063bcb1a71e906044016020604051808303816000875af1158015612276573d6000803e3d6000fd5b505050506040513d601f19601f8201168201806040525081019061229a91906155f8565b6122ff5760405162461bcd60e51b815260206004820152603060248201527f44414f436f6d6d69747465653a206661696c656420746f20726567697374657260448201526f416e644465706c6f79436f696e61676560801b6064820152608401610a7d565b806001600160a01b0316826001600160a01b03167f7cf8db18d9a5c7f44156bfabdbb59ac982a8a004e461ca1b87ee71a5cdfbc5ef8686604051612344929190615a21565b60405180910390a350505050565b6006818154811061236257600080fd5b6000918252602090912001546001600160a01b0316905081565b6001600160a01b03811633146123fa5760405162461bcd60e51b815260206004820152602f60248201527f416363657373436f6e74726f6c3a2063616e206f6e6c792072656e6f756e636560448201527f20726f6c657320666f722073656c6600000000000000000000000000000000006064820152608401610a7d565b611b4b828261415f565b600080546001600160a01b0316331461245f5760405162461bcd60e51b815260206004820152601160248201527f49742773206e6f742066726f6d20544f4e0000000000000000000000000000006044820152606401610a7d565b600061246b84846141b8565b905060005b8151518110156126c957600154825180516001600160a01b03909216918390811061249d5761249d615615565b60200260200101516001600160a01b0316036126b7576000826080015182815181106124cb576124cb615615565b6020026020010151905060006124ee60006004846142349092919063ffffffff16565b905061251f604051806040016040528060048152602001633bc3556560e21b8152508261435c90919063ffffffff16565b1561256c5760405162461bcd60e51b815260206004820152601160248201527f636c61696d544f4e20646f6e74207573650000000000000000000000000000006044820152606401610a7d565b6040805180820190915260048152637c24048d60e11b602082015261259290829061435c565b1561264157600080546040805160609290921b6bffffffffffffffffffffffff191660208301528051808303601401815260349092019052905060006125db8460106014614234565b905060006125e9828461435c565b905080156126395760405162461bcd60e51b815260206004820152601760248201527f636c61696d455243323020746f6e20646f6e74207573650000000000000000006044820152606401610a7d565b5050506126b4565b6040805180820190915260048152630f52bba760e41b602082015261266790829061435c565b156126b45760405162461bcd60e51b815260206004820152601260248201527f636c61696d57544f4e20646f6e742075736500000000000000000000000000006044820152606401610a7d565b50505b806126c18161588c565b915050612470565b506126ec87826000015183602001518460400151856060015186608001516143bf565b506001979650505050505050565b6127056000336138fa565b6127505760405162461bcd60e51b81526020600482015260286024820152600080516020615da783398151915260448201526730b71030b236b4b760c11b6064820152608401610a7d565b61275b838383614509565b505050565b61276b6000336138fa565b6127b65760405162461bcd60e51b81526020600482015260286024820152600080516020615da783398151915260448201526730b71030b236b4b760c11b6064820152608401610a7d565b8160085481106128135760405162461bcd60e51b815260206004820152602260248201527f44414f436f6d6d69747465653a20696e76616c6964206d656d62657220696e646044820152610caf60f31b6064820152608401610a7d565b60006007848154811061282857612828615615565b60009182526020808320909101546001600160a01b03168083526009909152604082206007805492945090929161286190600190615a35565b8154811061287157612871615615565b6000918252602090912001546007546001600160a01b03909116915061289990600190615a35565b8614612905576001600160a01b03811660009081526009602052604090206001810187905560078054839190899081106128d5576128d5615615565b9060005260206000200160006101000a8154816001600160a01b0302191690836001600160a01b03160217905550505b60006001830155600382015460028301546001600160801b039182169116111561298e576002820154612941906001600160801b031642615644565b600283018054601090612965908490600160801b90046001600160801b0316615664565b92506101000a8154816001600160801b0302191690836001600160801b031602179055506129ef565b60038201546129a6906001600160801b031642615644565b6002830180546010906129ca908490600160801b90046001600160801b0316615664565b92506101000a8154816001600160801b0302191690836001600160801b031602179055505b6002820180546001600160801b03191690556007805480612a1257612a12615a48565b600082815260209020810160001990810180546001600160a01b0319169055019055600854612a4390600190615a35565b600855612a4f85613a02565b6040516001600160a01b03848116825282169087907f663b98adf1afa777e36528b3293a057803f87ed00d2d2518dccfe5d7a6e99ccf9060200160405180910390a3600854612a9f8160016158a5565b6040517f8c0366d1e3a335a312d012257ee764723c38ec2dd5e74cbfad372513521f977190600090a3505050505050565b6007818154811061236257600080fd5b612aeb6000336138fa565b612b365760405162461bcd60e51b81526020600482015260286024820152600080516020615da783398151915260448201526730b71030b236b4b760c11b6064820152608401610a7d565b600b8190556040518181527f42bd846b3ff7895ea031753b0d8256b4816edaea44f7d8d9db60ea83b8ee5e4b906020015b60405180910390a150565b336000818152600960205260409020546001600160a01b031615612bea5760405162461bcd60e51b815260206004820152602960248201527f44414f436f6d6d69747465653a2063616e64696461746520616c7265616479206044820152681c9959da5cdd195c9960ba1b6064820152608401610a7d565b60035460055460405163732518fb60e11b81526000926001600160a01b039081169263e64a31f692612c2b92879287928b928b9230929116906004016159da565b6020604051808303816000875af1158015612c4a573d6000803e3d6000fd5b505050506040513d601f19601f82011682018060405250810190612c6e91906155bd565b90506001600160a01b038116612cdf5760405162461bcd60e51b815260206004820152603060248201527f44414f436f6d6d69747465653a206465706c6f7965642063616e64696461746560448201526f436f6e7472616374206973207a65726f60801b6064820152608401610a7d565b6001600160a01b038281166000908152600960205260409020541615612d605760405162461bcd60e51b815260206004820152603060248201527f44414f436f6d6d69747465653a205468652063616e64696461746520616c726560448201526f18591e481a185cc818dbdb9d1c9858dd60821b6064820152608401610a7d565b60048054600554604051635e58d38f60e11b81526001600160a01b0385811694820194909452908316602482015291169063bcb1a71e906044016020604051808303816000875af1158015612db9573d6000803e3d6000fd5b505050506040513d601f19601f82011682018060405250810190612ddd91906155f8565b612e425760405162461bcd60e51b815260206004820152603060248201527f44414f436f6d6d69747465653a206661696c656420746f20726567697374657260448201526f416e644465706c6f79436f696e61676560801b6064820152608401610a7d565b6040805160a0810182526001600160a01b038381168083526000602080850182815285870183815260608701848152608088018581528b88168087526009909552898620985189546001600160a01b03199081169190991617895592516001808a0191909155915190516001600160801b03918216600160801b918316919091021760028901559151600390970180546001600160801b031916979092169690961790556006805495860181559091527ff652222313e28459528d920b65115c16c04f3efc82aaedc97be59f3f377c0d3f9093018054909216831790915591517f7cf8db18d9a5c7f44156bfabdbb59ac982a8a004e461ca1b87ee71a5cdfbc5ef906123449088908890615a21565b6000836001600160a01b0316636c8381f86040518163ffffffff1660e01b8152600401602060405180830381865afa158015612f91573d6000803e3d6000fd5b505050506040513d601f19601f82011682018060405250810190612fb591906155bd565b90506000819050846001600160a01b0316639b6382686040518163ffffffff1660e01b8152600401602060405180830381865afa158015612ffa573d6000803e3d6000fd5b505050506040513d601f19601f8201168201806040525081019061301e91906155f8565b1561308857816001600160a01b031663570ca7356040518163ffffffff1660e01b8152600401602060405180830381865afa158015613061573d6000803e3d6000fd5b505050506040513d601f19601f8201168201806040525081019061308591906155bd565b90505b336001600160a01b038216146131065760405162461bcd60e51b815260206004820152603a60248201527f44414f436f6d6d69747465653a2073656e646572206973206e6f74207468652060448201527f63616e646964617465206f66207468697320636f6e74726163740000000000006064820152608401610a7d565b6040516325d6086160e01b81526001600160a01b038616906325d60861906131349087908790600401615a21565b600060405180830381600087803b15801561314e57600080fd5b505af1158015613162573d6000803e3d6000fd5b505050507fda033346b344f4675799a7ab4d837f0deb62d4afcdcaba4613913b4c25838cb382858560405161319993929190615a5e565b60405180910390a15050505050565b6000336001600160a01b0316636c8381f86040518163ffffffff1660e01b8152600401602060405180830381865afa1580156131e8573d6000803e3d6000fd5b505050506040513d601f19601f8201168201806040525081019061320c91906155bd565b6001600160a01b03808216600090815260096020526040902080549293509116331461328b5760405162461bcd60e51b815260206004820152602860248201527f44414f436f6d6d69747465653a20696e76616c69642063616e6469646174652060448201526718dbdb9d1c9858dd60c21b6064820152608401610a7d565b600061329683613912565b90506000811161330e5760405162461bcd60e51b815260206004820152602b60248201527f44414f436f6d6d69747465653a20796f7520646f6e2774206861766520636c6160448201527f696d61626c652077746f6e0000000000000000000000000000000000000000006064820152608401610a7d565b600061331982610a12565b600154601054604051637c24048d60e11b81526001600160a01b039182166004820152888216602482015260448101849052929350169063f848091a90606401600060405180830381600087803b15801561337357600080fd5b505af1158015613387573d6000803e3d6000fd5b505050506003830180546001600160801b031916426001600160801b03908116919091179091556002840180549091169055604080516001600160a01b038781168252602082018490528616917fb15377c434dc1922cc2eb7d8950640960a05f0cf6d5dc9442de8414a9da2b30891016115b8565b6134076000336138fa565b6134525760405162461bcd60e51b81526020600482015260286024820152600080516020615da783398151915260448201526730b71030b236b4b760c11b6064820152608401610a7d565b81600854106134c95760405162461bcd60e51b815260206004820152603c60248201527f44414f436f6d6d69747465653a20596f75206861766520746f2063616c6c206460448201527f656372656173654d61784d656d62657220746f206465637265617365000000006064820152608401610a7d565b60088054908390556134d9614b51565b6134e282613a02565b604051839082907f8c0366d1e3a335a312d012257ee764723c38ec2dd5e74cbfad372513521f977190600090a3505050565b61351f6000336138fa565b61356a5760405162461bcd60e51b81526020600482015260286024820152600080516020615da783398151915260448201526730b71030b236b4b760c11b6064820152608401610a7d565b6005546001600160a01b03166135d65760405162461bcd60e51b815260206004820152602b60248201527f53746f726167655374617465436f6d6d69747465653a20696e76616c6964205360448201526a6569674d616e616765726560a81b6064820152608401610a7d565b600554604051630e9ab1e960e31b8152600481018390526001600160a01b03909116906374d58f48906024015b600060405180830381600087803b15801561361d57600080fd5b505af1158015613631573d6000803e3d6000fd5b5050505050565b60006001600160a01b0382166136905760405162461bcd60e51b815260206004820152601f60248201527f54686973206163636f756e74206973206e6f7420612063616e646964617465006044820152606401610a7d565b816001600160a01b031663817b1cd26040518163ffffffff1660e01b8152600401602060405180830381865afa1580156136ce573d6000803e3d6000fd5b505050506040513d601f19601f82011682018060405250810190610a0c919061562b565b6136fd6000336138fa565b6137485760405162461bcd60e51b81526020600482015260286024820152600080516020615da783398151915260448201526730b71030b236b4b760c11b6064820152608401610a7d565b6002546001600160a01b03166356150a368483600381111561376c5761376c61593d565b6040518363ffffffff1660e01b8152600401613789929190615953565b600060405180830381600087803b1580156137a357600080fd5b505af11580156137b7573d6000803e3d6000fd5b50506002546001600160a01b0316915063d896dd649050848460058111156137e1576137e161593d565b6040518363ffffffff1660e01b81526004016137fe929190615977565b600060405180830381600087803b15801561381857600080fd5b505af115801561382c573d6000803e3d6000fd5b50505050505050565b60025460405163442da34b60e11b8152600481018390526001600160a01b039091169063885b469690602401613603565b6001600160a01b038082166000908152600960209081526040808320548151633b253c2b60e11b8152915193941692839263764a78569260048082019391829003018188875af11580156138be573d6000803e3d6000fd5b505050506040513d601f19601f820116820180604052508101906110da91906155f8565b6000828152600c602052604081206110da9083614bb4565b6000828152600c602052604081206110da9083614bc0565b6001600160a01b038116600090815260096020526040812060028101546001600160801b03600160801b820481169116156139b257600382015460028301546001600160801b039182169116111561398d5760028201546001600160801b031661397c42836158a5565b6139869190615a35565b90506139b2565b60038201546001600160801b03166139a542836158a5565b6139af9190615a35565b90505b600b546139bf90826155a6565b949350505050565b611b4b338383614509565b6000806139f7836001600160a01b039081166000908152600960205260409020541690565b90506110da81613638565b613a0d6000336138fa565b613a585760405162461bcd60e51b81526020600482015260286024820152600080516020615da783398151915260448201526730b71030b236b4b760c11b6064820152608401610a7d565b6002546001600160a01b0316613ac55760405162461bcd60e51b815260206004820152602c60248201527f53746f726167655374617465436f6d6d69747465653a204167656e64614d616e60448201526b61676572206973207a65726f60a01b6064820152608401610a7d565b6002600854613ad49190615a81565b8111613b225760405162461bcd60e51b815260206004820152601c60248201527f44414f436f6d6d69747465653a20696e76616c69642071756f72756d000000006044820152606401610a7d565b600854811115613b835760405162461bcd60e51b815260206004820152602660248201527f44414f436f6d6d69747465653a2071756f72756d20657863656564206d61782060448201526536b2b6b132b960d11b6064820152608401610a7d565b600a8190556040518181527f027863d12a407097e086a48e36475bfc859d0b200b7e6f65b5fd3b218e46632e90602001612b67565b600080336001600160a01b0316636c8381f86040518163ffffffff1660e01b8152600401602060405180830381865afa158015613bf9573d6000803e3d6000fd5b505050506040513d601f19601f82011682018060405250810190613c1d91906155bd565b9050613c4c816001600160a01b03166000908152600960205260409020600201546001600160801b0316151590565b613ca45760405162461bcd60e51b815260206004820152602360248201527f53746f726167655374617465436f6d6d69747465653a206e6f742061206d656d6044820152623132b960e91b6064820152608401610a7d565b6000336001600160a01b0316636c8381f86040518163ffffffff1660e01b8152600401602060405180830381865afa158015613ce4573d6000803e3d6000fd5b505050506040513d601f19601f82011682018060405250810190613d0891906155bd565b6001600160a01b038082166000908152600960205260409020805492935091163314613d875760405162461bcd60e51b815260206004820152602860248201527f44414f436f6d6d69747465653a20696e76616c69642063616e6469646174652060448201526718dbdb9d1c9858dd60c21b6064820152608401610a7d565b60006007826001015481548110613da057613da0615615565b600091825260209091200180546001600160a01b0319166001600160a01b0392909216919091179055600381015460028201546001600160801b0391821691161115613e4b576002810154613dfe906001600160801b031642615644565b600282018054601090613e22908490600160801b90046001600160801b0316615664565b92506101000a8154816001600160801b0302191690836001600160801b03160217905550613eac565b6003810154613e63906001600160801b031642615644565b600282018054601090613e87908490600160801b90046001600160801b0316615664565b92506101000a8154816001600160801b0302191690836001600160801b031602179055505b6002810180546001600160801b03191690556001810180546000918290556040516001600160a01b038516815290919082907f663b98adf1afa777e36528b3293a057803f87ed00d2d2518dccfe5d7a6e99ccf9060200160405180910390a3600194505050505090565b6001600160a01b0383811660009081526009602052604090205416613f3c818484612f51565b50505050565b6000818152600c60205260408120610a0c90614be2565b6001600160a01b03808216600090815260096020526040812080549192909116613f865750600092915050565b8054600090613fa5906001600160a01b0316631dffc87160e21b614bec565b9050801515600003613fbb575060009392505050565b815460408051631dffc87160e21b815290516001600160a01b03909216916377ff21c4916004808201926020929091908290030181865afa158015614004573d6000803e3d6000fd5b505050506040513d601f19601f820116820180604052508101906139bf91906155f8565b60008061404d846001600160a01b039081166000908152600960205260409020541690565b90506139bf8184611018565b6000828152600c602052604090206002015461407590336138fa565b6123fa5760405162461bcd60e51b815260206004820152603060248201527f416363657373436f6e74726f6c3a2073656e646572206d75737420626520616e60448201527f2061646d696e20746f207265766f6b65000000000000000000000000000000006064820152608401610a7d565b60008060208301600080868360008a619c405a03f19695505050505050565b6000828152600c6020526040902061411e9082614c08565b15611b4b5760405133906001600160a01b0383169084907f2f8788117e7eff1d82e926ec794901d17c78024a50270940304540a733656f0d90600090a45050565b6000828152600c602052604090206141779082614c1d565b15611b4b5760405133906001600160a01b0383169084907ff6391f5c32d9c69d2a47ea670b442974b53935d1edc7fd64eb21e047a839171b90600090a45050565b6141fe6040518060a001604052806060815260200160006001600160801b0316815260200160006001600160801b03168152602001600015158152602001606081525090565b61420a82840184615b5a565b6080860152151560608501526001600160801b039081166040850152166020830152815292915050565b60608161424281601f6158a5565b10156142905760405162461bcd60e51b815260206004820152600e60248201527f736c6963655f6f766572666c6f770000000000000000000000000000000000006044820152606401610a7d565b61429a82846158a5565b845110156142ea5760405162461bcd60e51b815260206004820152601160248201527f736c6963655f6f75744f66426f756e64730000000000000000000000000000006044820152606401610a7d565b6060821580156143095760405191506000825260208201604052614353565b6040519150601f8416801560200281840101858101878315602002848b0101015b8183101561434257805183526020928301920161432a565b5050858452601f01601f1916604052505b50949350505050565b81518151600091600191811480831461437857600092506143b5565b600160208701838101602088015b60028483851001036143b05780518351146143a45760009650600093505b60209283019201614386565b505050505b5090949350505050565b6002546000906001600160a01b031661442f5760405162461bcd60e51b815260206004820152602c60248201527f53746f726167655374617465436f6d6d69747465653a204167656e64614d616e60448201526b61676572206973207a65726f60a01b6064820152608401610a7d565b61443887614c32565b6002546040516304a091b760e31b81526000916001600160a01b0316906325048db890614471908a908a908a908a908a90600401615c7d565b6020604051808303816000875af1158015614490573d6000803e3d6000fd5b505050506040513d601f19601f820116820180604052508101906144b4919061562b565b905080886001600160a01b03167fcd47bcad760e912d146723a314cc78b8570ee76ec8bdd4b60335087f6c2f47d7898989896040516144f69493929190615d13565b60405180910390a3979650505050505050565b6005546001600160a01b03166145755760405162461bcd60e51b815260206004820152602b60248201527f53746f726167655374617465436f6d6d69747465653a20696e76616c6964205360448201526a6569674d616e616765726560a81b6064820152608401610a7d565b6004546001600160a01b03166145e35760405162461bcd60e51b815260206004820152602d60248201527f53746f726167655374617465436f6d6d69747465653a20696e76616c6964204c60448201526c6179657232526567697374727960981b6064820152608401610a7d565b6003546001600160a01b03166146555760405162461bcd60e51b815260206004820152603160248201527f53746f726167655374617465436f6d6d69747465653a20696e76616c696420436044820152706f6d6d69747465654c32466163746f727960781b6064820152608401610a7d565b6001600160a01b0380831660009081526009602052604090205416156146cf5760405162461bcd60e51b815260206004820152602960248201527f44414f436f6d6d69747465653a2063616e64696461746520616c7265616479206044820152681c9959da5cdd195c9960ba1b6064820152608401610a7d565b6001600160a01b03821661473e5760405162461bcd60e51b815260206004820152603060248201527f44414f436f6d6d69747465653a206465706c6f7965642063616e64696461746560448201526f436f6e7472616374206973207a65726f60801b6064820152608401610a7d565b6001600160a01b0382811660009081526009602052604090205416156147bf5760405162461bcd60e51b815260206004820152603060248201527f44414f436f6d6d69747465653a205468652063616e64696461746520616c726560448201526f18591e481a185cc818dbdb9d1c9858dd60821b6064820152608401610a7d565b6000829050806001600160a01b031663882eed2c6040518163ffffffff1660e01b8152600401602060405180830381865afa158015614802573d6000803e3d6000fd5b505050506040513d601f19601f8201168201806040525081019061482691906155f8565b6148805760405162461bcd60e51b815260206004820152602560248201527f44414f436f6d6d69747465653a20696e76616c6964206c617965723220636f6e6044820152641d1c9858dd60da1b6064820152608401610a7d565b836001600160a01b0316816001600160a01b031663570ca7356040518163ffffffff1660e01b8152600401602060405180830381865afa1580156148c8573d6000803e3d6000fd5b505050506040513d601f19601f820116820180604052508101906148ec91906155bd565b6001600160a01b0316146149425760405162461bcd60e51b815260206004820152601e60248201527f44414f436f6d6d69747465653a20696e76616c6964206f70657261746f7200006044820152606401610a7d565b60035460055460405163732518fb60e11b81526000926001600160a01b039081169263e64a31f6926149819289926001928a9230921690600401615d4e565b6020604051808303816000875af11580156149a0573d6000803e3d6000fd5b505050506040513d601f19601f820116820180604052508101906149c491906155bd565b90506001600160a01b038116614a355760405162461bcd60e51b815260206004820152603060248201527f44414f436f6d6d69747465653a206465706c6f7965642063616e64696461746560448201526f436f6e7472616374206973207a65726f60801b6064820152608401610a7d565b6040805160a0810182526001600160a01b038381168083526000602080850182815285870183815260608701848152608088018581528d88168087526009909552898620985189546001600160a01b03199081169190991617895592516001808a0191909155915190516001600160801b03918216600160801b918316919091021760028901559151600390970180546001600160801b031916979092169690961790556006805495860181559091527ff652222313e28459528d920b65115c16c04f3efc82aaedc97be59f3f377c0d3f9093018054909216831790915591517f0f401d1bd976f5304ef9cfa87aeb24d777c0e205fb87bbae1dc0f0293ba7976a90614b42908790615d93565b60405180910390a35050505050565b6007545b600854811015614bb157600780546001810182556000919091527fa66cc928b5edb82af9bd49922954155ab7b0942694bea4ce44661d9a8736c6880180546001600160a01b031916905580614ba98161588c565b915050614b55565b50565b60006110da8383614e53565b6001600160a01b038116600090815260018301602052604081205415156110da565b6000610a0c825490565b6000614bf783614ed9565b80156110da57506110da8383614f0c565b60006110da836001600160a01b038416614faa565b60006110da836001600160a01b038416614ff9565b60025460408051632522a32f60e01b815290516000926001600160a01b031691632522a32f9160048083019260209291908290030181865afa158015614c7c573d6000803e3d6000fd5b505050506040513d601f19601f82011682018060405250810190614ca0919061562b565b6000546040516323b872dd60e01b81526001600160a01b038581166004830152306024830152604482018490529293509116906323b872dd906064016020604051808303816000875af1158015614cfb573d6000803e3d6000fd5b505050506040513d601f19601f82011682018060405250810190614d1f91906155f8565b614d915760405162461bcd60e51b815260206004820152603160248201527f44414f436f6d6d69747465653a206661696c656420746f207472616e7366657260448201527f20746f6e2066726f6d2063726561746f720000000000000000000000000000006064820152608401610a7d565b60005460405163a9059cbb60e01b815260016004820152602481018390526001600160a01b039091169063a9059cbb906044016020604051808303816000875af1158015614de3573d6000803e3d6000fd5b505050506040513d601f19601f82011682018060405250810190614e0791906155f8565b611b4b5760405162461bcd60e51b815260206004820152601c60248201527f44414f436f6d6d69747465653a206661696c656420746f206275726e000000006044820152606401610a7d565b81546000908210614eb15760405162461bcd60e51b815260206004820152602260248201527f456e756d657261626c655365743a20696e646578206f7574206f6620626f756e604482015261647360f01b6064820152608401610a7d565b826000018281548110614ec657614ec6615615565b9060005260206000200154905092915050565b6000614eec826301ffc9a760e01b614f0c565b8015610a0c5750614f05826001600160e01b0319614f0c565b1592915050565b604080516001600160e01b03198316602480830191909152825180830390910181526044909101909152602080820180517bffffffffffffffffffffffffffffffffffffffffffffffffffffffff166301ffc9a760e01b178152825160009392849283928392918391908a617530fa92503d91506000519050828015614f93575060208210155b8015614f9f5750600081115b979650505050505050565b6000818152600183016020526040812054614ff157508154600181810184556000848152602080822090930184905584548482528286019093526040902091909155610a0c565b506000610a0c565b600081815260018301602052604081205480156150e257600061501d600183615a35565b855490915060009061503190600190615a35565b9050600086600001828154811061504a5761504a615615565b906000526020600020015490508087600001848154811061506d5761506d615615565b6000918252602090912001556150848360016158a5565b600082815260018901602052604090205586548790806150a6576150a6615a48565b60019003818190600052602060002001600090559055866001016000878152602001908152602001600020600090556001945050505050610a0c565b6000915050610a0c565b5092915050565b60006020828403121561510557600080fd5b81356001600160e01b0319811681146110da57600080fd5b60006020828403121561512f57600080fd5b5035919050565b6001600160a01b0381168114614bb157600080fd5b60006020828403121561515d57600080fd5b81356110da81615136565b6000806040838503121561517b57600080fd5b823561518681615136565b9150602083013561519681615136565b809150509250929050565b60008083601f8401126151b357600080fd5b50813567ffffffffffffffff8111156151cb57600080fd5b6020830191508360208285010111156151e357600080fd5b9250929050565b6000806000806060858703121561520057600080fd5b8435935060208501359250604085013567ffffffffffffffff81111561522557600080fd5b615231878288016151a1565b95989497509550505050565b6000806040838503121561525057600080fd5b82359150602083013561519681615136565b60008060006040848603121561527757600080fd5b833567ffffffffffffffff81111561528e57600080fd5b61529a868287016151a1565b90945092505060208401356152ae81615136565b809150509250925092565b6000806000806000608086880312156152d157600080fd5b85356152dc81615136565b945060208601356152ec81615136565b935060408601359250606086013567ffffffffffffffff81111561530f57600080fd5b61531b888289016151a1565b969995985093965092949392505050565b634e487b7160e01b600052604160045260246000fd5b604051601f8201601f1916810167ffffffffffffffff8111828210171561536b5761536b61532c565b604052919050565b600067ffffffffffffffff82111561538d5761538d61532c565b50601f01601f191660200190565b60006153ae6153a984615373565b615342565b90508281528383830111156153c257600080fd5b828260208301376000602084830101529392505050565b600082601f8301126153ea57600080fd5b6110da8383356020850161539b565b60008060006060848603121561540e57600080fd5b833561541981615136565b9250602084013561542981615136565b9150604084013567ffffffffffffffff81111561544557600080fd5b615451868287016153d9565b9150509250925092565b6000806040838503121561546e57600080fd5b50508035926020909101359150565b6000806020838503121561549057600080fd5b823567ffffffffffffffff8111156154a757600080fd5b6154b3858286016151a1565b90969095509350505050565b6000806000604084860312156154d457600080fd5b83356154df81615136565b9250602084013567ffffffffffffffff8111156154fb57600080fd5b615507868287016151a1565b9497909650939450505050565b60008060006060848603121561552957600080fd5b505081359360208301359350604090920135919050565b6000806040838503121561555357600080fd5b823561555e81615136565b9150602083013567ffffffffffffffff81111561557a57600080fd5b615586858286016153d9565b9150509250929050565b634e487b7160e01b600052601160045260246000fd5b8082028115828204841417610a0c57610a0c615590565b6000602082840312156155cf57600080fd5b81516110da81615136565b8015158114614bb157600080fd5b80516155f3816155da565b919050565b60006020828403121561560a57600080fd5b81516110da816155da565b634e487b7160e01b600052603260045260246000fd5b60006020828403121561563d57600080fd5b5051919050565b6001600160801b038281168282160390808211156150ec576150ec615590565b6001600160801b038181168382160190808211156150ec576150ec615590565b600067ffffffffffffffff82111561569e5761569e61532c565b5060051b60200190565b60005b838110156156c35781810151838201526020016156ab565b50506000910152565b600082601f8301126156dd57600080fd5b815160206156ed6153a983615684565b82815260059290921b8401810191818101908684111561570c57600080fd5b8286015b8481101561578857805167ffffffffffffffff8111156157305760008081fd5b8701603f810189136157425760008081fd5b8481015160406157546153a983615373565b8281528b828486010111156157695760008081fd5b615778838983018487016156a8565b8652505050918301918301615710565b509695505050505050565b600080600080608085870312156157a957600080fd5b845167ffffffffffffffff808211156157c157600080fd5b818701915087601f8301126157d557600080fd5b815160206157e56153a983615684565b82815260059290921b8401810191818101908b84111561580457600080fd5b948201945b8386101561582b57855161581c81615136565b82529482019490820190615809565b918a015191985090935050508082111561584457600080fd5b50615851878288016156cc565b935050615860604086016155e8565b6060959095015193969295505050565b600082516158828184602087016156a8565b9190910192915050565b60006001820161589e5761589e615590565b5060010190565b80820180821115610a0c57610a0c615590565b600081518084526020808501945080840160005b838110156158f15781516001600160a01b0316875295820195908201906001016158cc565b509495945050505050565b6020815260006110da60208301846158b8565b60008060006060848603121561592457600080fd5b8351925060208401519150604084015190509250925092565b634e487b7160e01b600052602160045260246000fd5b828152604081016004831061596a5761596a61593d565b8260208301529392505050565b828152604081016006831061596a5761596a61593d565b81835281816020850137506000828201602090810191909152601f909101601f19169091010190565b8381526040602082015260006159d160408301848661598e565b95945050505050565b60006001600160a01b038089168352871515602084015260a06040840152615a0660a08401878961598e565b94811660608401529290921660809091015250949350505050565b6020815260006139bf60208301848661598e565b81810381811115610a0c57610a0c615590565b634e487b7160e01b600052603160045260246000fd5b6001600160a01b03841681526040602082015260006159d160408301848661598e565b600082615a9e57634e487b7160e01b600052601260045260246000fd5b500490565b80356001600160801b03811681146155f357600080fd5b80356155f3816155da565b600082601f830112615ad657600080fd5b81356020615ae66153a983615684565b82815260059290921b84018101918181019086841115615b0557600080fd5b8286015b8481101561578857803567ffffffffffffffff811115615b295760008081fd5b8701603f81018913615b3b5760008081fd5b615b4c89868301356040840161539b565b845250918301918301615b09565b600080600080600060a08688031215615b7257600080fd5b853567ffffffffffffffff80821115615b8a57600080fd5b818801915088601f830112615b9e57600080fd5b81356020615bae6153a983615684565b82815260059290921b8401810191818101908c841115615bcd57600080fd5b948201945b83861015615bf4578535615be581615136565b82529482019490820190615bd2565b9950615c0390508a8201615aa3565b97505050615c1360408901615aa3565b9450615c2160608901615aba565b93506080880135915080821115615c3757600080fd5b50615c4488828901615ac5565b9150509295509295909350565b60008151808452615c698160208601602086016156a8565b601f01601f19169290920160200192915050565b60a081526000615c9060a08301886158b8565b60206001600160801b0380891682860152808816604086015250851515606085015283820360808501528185518084528284019150828160051b85010183880160005b83811015615d0157601f19878403018552615cef838351615c51565b94860194925090850190600101615cd3565b50909c9b505050505050505050505050565b608081526000615d2660808301876158b8565b6001600160801b03958616602084015293909416604082015290151560609091015292915050565b60006001600160a01b038088168352861515602084015260a06040840152615d7960a0840187615c51565b948116606084015292909216608090910152509392505050565b6020815260006110da6020830184615c5156fe44414f436f6d6d69747465653a206d73672e73656e646572206973206e6f7420a164736f6c6343000813000a",
  "linkReferences": {},
  "deployedLinkReferences": {}
}